:020000040000FA
:040000000DEF00F010
:020004000000FA
:0600080070EF00F0100093
:080018001000D08EF28EF28C74
:10002000F292F288F19C946A956A96680F0EE8CF76
:1000300093FF070EE8CFB4FF8C68C46AC36A010E51
:10004000E8CFC2FF0C0EE8CFC1FFA20EE8CFC0FF81
:10005000080EF36E00EC08F0C282C2B2FED7030EA7
:10006000C46201D007D0000EC46206D000D08A9AC4
:100070008C8002D08A8A8C90C46AC36A050EE8CF4D
:10008000C2FF080EF36E00EC08F0C282C2B2FED7C7
:10009000030EC46201D007D0000EC46207D000D0A6
:1000A0008A9C8C8203D08A8C8C9200D0C46AC36AEA
:1000B000090EE8CFC2FF080EF36E00EC08F0C28212
:1000C000C2B2FED7030EC46201D007D0000EC462D4
:1000D000B4D700D08A9E8C84B0D78A8E8C94ADD74A
:1000E000F2928A6A8C6878EC00F084B0FED7120035
:1000F000800E016EFA0E006E00000000000000008D
:1001000000000000000000000000000000000000EF
:1001100000000000000000000000000000000000DF
:1001200000000000000000000000000000000000CF
:1001300000000000000000000000000000000000BF
:1001400000000000000000000000000000000000AF
:10015000000000000000000000000000000000009F
:10016000000000000000000000000000000000008F
:10017000000000000000000000000000000000007F
:10018000000000000000000000000000000000006F
:10019000000000000000000000000000000000005F
:1001A000000000000000000000000000000000004F
:1001B000000000000000000000000000000000003F
:1001C000000000000000000000000000000000002F
:1001D000000000000000000000000000000000001F
:1001E000000000000000000000000000000000000F
:1001F00000000000000000000000000000000000FF
:1002000000000000000000000000000000000000EE
:1002100000000000000000000000000000000000DE
:1002200000000000000000000000000000000000CE
:1002300000000000000000000000000000000000BE
:1002400000000000000000000000000000000000AE
:10025000000000000000000000000000000000009E
:10026000000000000000000000000000000000008E
:10027000000000000000000000000000000000007E
:10028000000000000000000000000000000000006E
:10029000000000000000000000000000000000005E
:1002A000000000000000000000000000000000004E
:1002B000000000000000000000000000000000003E
:1002C000000000000000000000000000000000002E
:1002D000000000000000000000000000000000001E
:1002E000000000000000002E07D7012E03D70000F9
:0202F0001200FA
:10100000C80ED56EF00ED66EF294F2A4FED7F32E73
:04101000F9D71200FA
:00000001FF
